8=FIXT.1.1|9=80|35=A|34=1|49=Broker|52=20190523-11:22:37.304|56=Trader|98=0|108=30|141=Y|1137=9|10=128|8=FIXT.1.1|9=55|35=0|34=2|49=Broker|52=20190523-11:23:07.673|56=Trader|10=240|8=FIXT.1.1|9=55|35=0|34=3|49=Broker|52=20190523-11:23:37.675|56=Trader|10=246|8=FIXT.1.1|9=55|35=0|34=4|49=Broker|52=20190523-11:24:07.673|56=Trader|10=243|8=FIXT.1.1|9=55|35=0|34=5|49=Broker|52=20190523-11:24:37.673|56=Trader|10=247|8=FIXT.1.1|9=55|35=0|34=6|49=Broker|52=20190523-11:25:07.672|56=Trader|10=245|8=FIXT.1.1|9=55|35=0|34=7|49=Broker|52=20190523-11:25:37.672|56=Trader|10=249|8=FIXT.1.1|9=55|35=0|34=8|49=Broker|52=20190523-11:26:07.671|56=Trader|10=247|8=FIXT.1.1|9=55|35=0|34=9|49=Broker|52=20190523-11:26:37.673|56=Trader|10=253|8=FIXT.1.1|9=56|35=0|34=10|49=Broker|52=20190523-11:27:07.673|56=Trader|10=036|8=FIXT.1.1|9=56|35=0|34=11|49=Broker|52=20190523-11:27:37.672|56=Trader|10=039|8=FIXT.1.1|9=56|35=0|34=12|49=Broker|52=20190523-11:28:07.672|56=Trader|10=038|8=FIXT.1.1|9=56|35=0|34=13|49=Broker|52=20190523-11:28:37.671|56=Trader|10=041|8=FIXT.1.1|9=56|35=0|34=14|49=Broker|52=20190523-11:29:07.674|56=Trader|10=043|8=FIXT.1.1|9=56|35=0|34=15|49=Broker|52=20190523-11:29:37.674|56=Trader|10=047|8=FIXT.1.1|9=56|35=0|34=16|49=Broker|52=20190523-11:30:07.673|56=Trader|10=036|8=FIXT.1.1|9=56|35=0|34=17|49=Broker|52=20190523-11:30:37.672|56=Trader|10=039|8=FIXT.1.1|9=56|35=0|34=18|49=Broker|52=20190523-11:31:07.674|56=Trader|10=040|8=FIXT.1.1|9=56|35=0|34=19|49=Broker|52=20190523-11:31:37.672|56=Trader|10=042|8=FIXT.1.1|9=56|35=0|34=20|49=Broker|52=20190523-11:32:07.672|56=Trader|10=032|8=FIXT.1.1|9=56|35=0|34=21|49=Broker|52=20190523-11:32:37.673|56=Trader|10=037|8=FIXT.1.1|9=56|35=0|34=22|49=Broker|52=20190523-11:33:07.672|56=Trader|10=035|8=FIXT.1.1|9=56|35=0|34=23|49=Broker|52=20190523-11:33:37.674|56=Trader|10=041|8=FIXT.1.1|9=56|35=0|34=24|49=Broker|52=20190523-11:34:07.672|56=Trader|10=038|8=FIXT.1.1|9=56|35=0|34=25|49=Broker|52=20190523-11:34:37.672|56=Trader|10=042|8=FIXT.1.1|9=56|35=0|34=26|49=Broker|52=20190523-11:35:07.671|56=Trader|10=040|8=FIXT.1.1|9=56|35=0|34=27|49=Broker|52=20190523-11:35:37.672|56=Trader|10=045|8=FIXT.1.1|9=56|35=0|34=28|49=Broker|52=20190523-11:36:07.673|56=Trader|10=045|8=FIXT.1.1|9=56|35=0|34=29|49=Broker|52=20190523-11:36:37.673|56=Trader|10=049|8=FIXT.1.1|9=56|35=0|34=30|49=Broker|52=20190523-11:37:07.672|56=Trader|10=038|8=FIXT.1.1|9=56|35=0|34=31|49=Broker|52=20190523-11:37:37.674|56=Trader|10=044|8=FIXT.1.1|9=56|35=0|34=32|49=Broker|52=20190523-11:38:07.673|56=Trader|10=042|8=FIXT.1.1|9=56|35=0|34=33|49=Broker|52=20190523-11:38:37.674|56=Trader|10=047|8=FIXT.1.1|9=56|35=0|34=34|49=Broker|52=20190523-11:39:07.673|56=Trader|10=045|8=FIXT.1.1|9=56|35=0|34=35|49=Broker|52=20190523-11:39:37.674|56=Trader|10=050|8=FIXT.1.1|9=56|35=0|34=36|49=Broker|52=20190523-11:40:07.671|56=Trader|10=037|8=FIXT.1.1|9=56|35=0|34=37|49=Broker|52=20190523-11:40:37.671|56=Trader|10=041|8=FIXT.1.1|9=56|35=0|34=38|49=Broker|52=20190523-11:41:07.673|56=Trader|10=042|8=FIXT.1.1|9=56|35=0|34=39|49=Broker|52=20190523-11:41:37.675|56=Trader|10=048|8=FIXT.1.1|9=56|35=0|34=40|49=Broker|52=20190523-11:42:07.671|56=Trader|10=034|8=FIXT.1.1|9=56|35=0|34=41|49=Broker|52=20190523-11:42:37.672|56=Trader|10=039|8=FIXT.1.1|9=56|35=0|34=42|49=Broker|52=20190523-11:43:07.670|56=Trader|10=036|8=FIXT.1.1|9=56|35=0|34=43|49=Broker|52=20190523-11:43:37.673|56=Trader|10=043|8=FIXT.1.1|9=56|35=0|34=44|49=Broker|52=20190523-11:44:07.671|56=Trader|10=040|8=FIXT.1.1|9=56|35=0|34=45|49=Broker|52=20190523-11:44:37.672|56=Trader|10=045|8=FIXT.1.1|9=56|35=0|34=46|49=Broker|52=20190523-11:45:07.672|56=Trader|10=044|8=FIXT.1.1|9=56|35=0|34=47|49=Broker|52=20190523-11:45:37.671|56=Trader|10=047|8=FIXT.1.1|9=56|35=0|34=48|49=Broker|52=20190523-11:46:07.672|56=Trader|10=047|8=FIXT.1.1|9=56|35=0|34=49|49=Broker|52=20190523-11:46:37.673|56=Trader|10=052|8=FIXT.1.1|9=56|35=0|34=50|49=Broker|52=20190523-11:47:07.674|56=Trader|10=043|8=FIXT.1.1|9=56|35=0|34=51|49=Broker|52=20190523-11:47:37.672|56=Trader|10=045|8=FIXT.1.1|9=56|35=0|34=52|49=Broker|52=20190523-11:48:07.673|56=Trader|10=045|8=FIXT.1.1|9=56|35=0|34=53|49=Broker|52=20190523-11:48:37.673|56=Trader|10=049|8=FIXT.1.1|9=56|35=0|34=54|49=Broker|52=20190523-11:49:07.673|56=Trader|10=048|8=FIXT.1.1|9=56|35=0|34=55|49=Broker|52=20190523-11:49:37.674|56=Trader|10=053|8=FIXT.1.1|9=56|35=0|34=56|49=Broker|52=20190523-11:50:07.673|56=Trader|10=042|8=FIXT.1.1|9=56|35=0|34=57|49=Broker|52=20190523-11:50:37.672|56=Trader|10=045|8=FIXT.1.1|9=56|35=0|34=58|49=Broker|52=20190523-11:51:07.671|56=Trader|10=043|8=FIXT.1.1|9=56|35=0|34=59|49=Broker|52=20190523-11:51:37.670|56=Trader|10=046|8=FIXT.1.1|9=56|35=0|34=60|49=Broker|52=20190523-11:52:07.672|56=Trader|10=038|8=FIXT.1.1|9=56|35=0|34=61|49=Broker|52=20190523-11:52:37.672|56=Trader|10=042|8=FIXT.1.1|9=56|35=0|34=62|49=Broker|52=20190523-11:53:07.684|56=Trader|10=044|8=FIXT.1.1|9=56|35=0|34=63|49=Broker|52=20190523-11:53:37.850|56=Trader|10=043|8=FIXT.1.1|9=56|35=0|34=64|49=Broker|52=20190523-11:54:07.852|56=Trader|10=044|8=FIXT.1.1|9=56|35=0|34=65|49=Broker|52=20190523-11:54:37.852|56=Trader|10=048|8=FIXT.1.1|9=56|35=0|34=66|49=Broker|52=20190523-11:55:07.851|56=Trader|10=046|8=FIXT.1.1|9=56|35=0|34=67|49=Broker|52=20190523-11:55:37.850|56=Trader|10=049|8=FIXT.1.1|9=56|35=0|34=68|49=Broker|52=20190523-11:56:07.850|56=Trader|10=048|8=FIXT.1.1|9=56|35=0|34=69|49=Broker|52=20190523-11:56:37.852|56=Trader|10=054|8=FIXT.1.1|9=56|35=0|34=70|49=Broker|52=20190523-11:57:07.852|56=Trader|10=044|8=FIXT.1.1|9=56|35=0|34=71|49=Broker|52=20190523-11:57:37.852|56=Trader|10=048|